{
  "_format": "hh-sol-artifact-1",
  "contractName": "DeliveryContract",
  "sourceName": "contracts/DeliveryContract.sol",
  "abi": [
    {
      "inputs": [
        {
          "internalType": "address",
          "name": "_stablecoin",
          "type": "address"
        }
      ],
      "stateMutability": "nonpayable",
      "type": "constructor"
    },
    {
      "anonymous": false,
      "inputs": [
        {
          "indexed": false,
          "internalType": "uint256",
          "name": "requestId",
          "type": "uint256"
        },
        {
          "indexed": false,
          "internalType": "address",
          "name": "driver",
          "type": "address"
        }
      ],
      "name": "RequestCompleted",
      "type": "event"
    },
    {
      "anonymous": false,
      "inputs": [
        {
          "indexed": false,
          "internalType": "uint256",
          "name": "requestId",
          "type": "uint256"
        },
        {
          "indexed": false,
          "internalType": "address",
          "name": "user",
          "type": "address"
        },
        {
          "indexed": false,
          "internalType": "address",
          "name": "driver",
          "type": "address"
        },
        {
          "indexed": false,
          "internalType": "uint256",
          "name": "amount",
          "type": "uint256"
        }
      ],
      "name": "RequestCreated",
      "type": "event"
    },
    {
      "inputs": [],
      "name": "admin",
      "outputs": [
        {
          "internalType": "address",
          "name": "",
          "type": "address"
        }
      ],
      "stateMutability": "view",
      "type": "function"
    },
    {
      "inputs": [
        {
          "internalType": "uint256",
          "name": "_requestId",
          "type": "uint256"
        }
      ],
      "name": "completeRequest",
      "outputs": [],
      "stateMutability": "nonpayable",
      "type": "function"
    },
    {
      "inputs": [
        {
          "internalType": "uint256",
          "name": "_amount",
          "type": "uint256"
        },
        {
          "internalType": "address",
          "name": "_driver",
          "type": "address"
        }
      ],
      "name": "createRequest",
      "outputs": [],
      "stateMutability": "nonpayable",
      "type": "function"
    },
    {
      "inputs": [],
      "name": "requestCounter",
      "outputs": [
        {
          "internalType": "uint256",
          "name": "",
          "type": "uint256"
        }
      ],
      "stateMutability": "view",
      "type": "function"
    },
    {
      "inputs": [
        {
          "internalType": "uint256",
          "name": "",
          "type": "uint256"
        }
      ],
      "name": "requests",
      "outputs": [
        {
          "internalType": "address",
          "name": "user",
          "type": "address"
        },
        {
          "internalType": "address",
          "name": "driver",
          "type": "address"
        },
        {
          "internalType": "uint256",
          "name": "amount",
          "type": "uint256"
        },
        {
          "internalType": "bool",
          "name": "isCompleted",
          "type": "bool"
        }
      ],
      "stateMutability": "view",
      "type": "function"
    },
    {
      "inputs": [],
      "name": "stablecoin",
      "outputs": [
        {
          "internalType": "contract IERC20",
          "name": "",
          "type": "address"
        }
      ],
      "stateMutability": "view",
      "type": "function"
    },
    {
      "inputs": [
        {
          "internalType": "address",
          "name": "",
          "type": "address"
        },
        {
          "internalType": "uint256",
          "name": "",
          "type": "uint256"
        }
      ],
      "name": "userRequests",
      "outputs": [
        {
          "internalType": "address",
          "name": "user",
          "type": "address"
        },
        {
          "internalType": "address",
          "name": "driver",
          "type": "address"
        },
        {
          "internalType": "uint256",
          "name": "amount",
          "type": "uint256"
        },
        {
          "internalType": "bool",
          "name": "isCompleted",
          "type": "bool"
        }
      ],
      "stateMutability": "view",
      "type": "function"
    }
  ],
  "bytecode": "0x608060405234801561001057600080fd5b5060405162000fdc38038062000fdc8339818101604052810190610034919061011e565b336000806101000a81548173ffffffffffffffffffffffffffffffffffffffff021916908373ffffffffffffffffffffffffffffffffffffffff16021790555080600160006101000a81548173ffffffffffffffffffffffffffffffffffffffff021916908373ffffffffffffffffffffffffffffffffffffffff1602179055505061014b565b600080fd5b600073ffffffffffffffffffffffffffffffffffffffff82169050919050565b60006100eb826100c0565b9050919050565b6100fb816100e0565b811461010657600080fd5b50565b600081519050610118816100f2565b92915050565b600060208284031215610134576101336100bb565b5b600061014284828501610109565b91505092915050565b610e81806200015b6000396000f3fe608060405234801561001057600080fd5b506004361061007d5760003560e01c8063973a814e1161005b578063973a814e14610104578063cc1e035914610122578063e9cbd8221461013e578063f851a4401461015c5761007d565b8063263cb6b6146100825780632f51e58c146100b557806381d12c58146100d1575b600080fd5b61009c6004803603810190610097919061097d565b61017a565b6040516100ac94939291906109f6565b60405180910390f35b6100cf60048036038101906100ca9190610a3b565b610214565b005b6100eb60048036038101906100e69190610a7b565b6105f9565b6040516100fb94939291906109f6565b60405180910390f35b61010c610676565b6040516101199190610aa8565b60405180910390f35b61013c60048036038101906101379190610a7b565b61067c565b005b61014661089a565b6040516101539190610b22565b60405180910390f35b6101646108c0565b6040516101719190610b3d565b60405180910390f35b6004602052816000526040600020818154811061019657600080fd5b9060005260206000209060040201600091509150508060000160009054906101000a900473ffffffffffffffffffffffffffffffffffffffff16908060010160009054906101000a900473ffffffffffffffffffffffffffffffffffffffff16908060020154908060030160009054906101000a900460ff16905084565b60008211610257576040517f08c379a000000000000000000000000000000000000000000000000000000000815260040161024e90610bb5565b60405180910390fd5b600160009054906101000a900473ffffffffffffffffffffffffffffffffffffffff1673ffffffffffffffffffffffffffffffffffffffff166323b872dd3330856040518463ffffffff1660e01b81526004016102b693929190610bd5565b6020604051808303816000875af11580156102d5573d6000803e3d6000fd5b505050506040513d601f19601f820116820180604052508101906102f99190610c38565b5060405180608001604052803373ffffffffffffffffffffffffffffffffffffffff1681526020018273ffffffffffffffffffffffffffffffffffffffff1681526020018381526020016000151581525060036000600254815260200190815260200160002060008201518160000160006101000a81548173ffffffffffffffffffffffffffffffffffffffff021916908373ffffffffffffffffffffffffffffffffffffffff16021790555060208201518160010160006101000a81548173ffffffffffffffffffffffffffffffffffffffff021916908373ffffffffffffffffffffffffffffffffffffffff1602179055506040820151816002015560608201518160030160006101000a81548160ff021916908315150217905550905050600460003373ffffffffffffffffffffffffffffffffffffffff1673ffffffffffffffffffffffffffffffffffffffff16815260200190815260200160002060036000600254815260200190815260200160002090806001815401808255809150506001900390600052602060002090600402016000909190919091506000820160009054906101000a900473ffffffffffffffffffffffffffffffffffffffff168160000160006101000a81548173ffffffffffffffffffffffffffffffffffffffff021916908373ffffffffffffffffffffffffffffffffffffffff1602179055506001820160009054906101000a900473ffffffffffffffffffffffffffffffffffffffff168160010160006101000a81548173ffffffffffffffffffffffffffffffffffffffff021916908373ffffffffffffffffffffffffffffffffffffffff160217905550600282015481600201556003820160009054906101000a900460ff168160030160006101000a81548160ff02191690831515021790555050507f0e7a8745f486625fa0fdb624c86193bdeab0bf9cdbf7b7225faf71fdcb60998f6002543383856040516105d59493929190610c65565b60405180910390a1600260008154809291906105f090610cd9565b91905055505050565b60036020528060005260406000206000915090508060000160009054906101000a900473ffffffffffffffffffffffffffffffffffffffff16908060010160009054906101000a900473ffffffffffffffffffffffffffffffffffffffff16908060020154908060030160009054906101000a900460ff16905084565b60025481565b60006003600083815260200190815260200160002090508060010160009054906101000a900473ffffffffffffffffffffffffffffffffffffffff1673ffffffffffffffffffffffffffffffffffffffff163373ffffffffffffffffffffffffffffffffffffffff1614610725576040517f08c379a000000000000000000000000000000000000000000000000000000000815260040161071c90610d6d565b60405180910390fd5b8060030160009054906101000a900460ff1615610777576040517f08c379a000000000000000000000000000000000000000000000000000000000815260040161076e90610dd9565b60405180910390fd5b60018160030160006101000a81548160ff021916908315150217905550600160009054906101000a900473ffffffffffffffffffffffffffffffffffffffff1673ffffffffffffffffffffffffffffffffffffffff1663a9059cbb8260010160009054906101000a900473ffffffffffffffffffffffffffffffffffffffff1683600201546040518363ffffffff1660e01b8152600401610819929190610df9565b6020604051808303816000875af1158015610838573d6000803e3d6000fd5b505050506040513d601f19601f8201168201806040525081019061085c9190610c38565b507f1d961eb7779cdf87f83b3c5ca1e5a7b0b7832f5fc1f9b813fea6787daf0e884c823360405161088e929190610e22565b60405180910390a15050565b600160009054906101000a900473ffffffffffffffffffffffffffffffffffffffff1681565b60008054906101000a900473ffffffffffffffffffffffffffffffffffffffff1681565b600080fd5b600073ffffffffffffffffffffffffffffffffffffffff82169050919050565b6000610914826108e9565b9050919050565b61092481610909565b811461092f57600080fd5b50565b6000813590506109418161091b565b92915050565b6000819050919050565b61095a81610947565b811461096557600080fd5b50565b60008135905061097781610951565b92915050565b60008060408385031215610994576109936108e4565b5b60006109a285828601610932565b92505060206109b385828601610968565b9150509250929050565b6109c681610909565b82525050565b6109d581610947565b82525050565b60008115159050919050565b6109f0816109db565b82525050565b6000608082019050610a0b60008301876109bd565b610a1860208301866109bd565b610a2560408301856109cc565b610a3260608301846109e7565b95945050505050565b60008060408385031215610a5257610a516108e4565b5b6000610a6085828601610968565b9250506020610a7185828601610932565b9150509250929050565b600060208284031215610a9157610a906108e4565b5b6000610a9f84828501610968565b91505092915050565b6000602082019050610abd60008301846109cc565b92915050565b6000819050919050565b6000610ae8610ae3610ade846108e9565b610ac3565b6108e9565b9050919050565b6000610afa82610acd565b9050919050565b6000610b0c82610aef565b9050919050565b610b1c81610b01565b82525050565b6000602082019050610b376000830184610b13565b92915050565b6000602082019050610b5260008301846109bd565b92915050565b600082825260208201905092915050565b7f416d6f756e74206d757374206265203e20300000000000000000000000000000600082015250565b6000610b9f601283610b58565b9150610baa82610b69565b602082019050919050565b60006020820190508181036000830152610bce81610b92565b9050919050565b6000606082019050610bea60008301866109bd565b610bf760208301856109bd565b610c0460408301846109cc565b949350505050565b610c15816109db565b8114610c2057600080fd5b50565b600081519050610c3281610c0c565b92915050565b600060208284031215610c4e57610c4d6108e4565b5b6000610c5c84828501610c23565b91505092915050565b6000608082019050610c7a60008301876109cc565b610c8760208301866109bd565b610c9460408301856109bd565b610ca160608301846109cc565b95945050505050565b7f4e487b7100000000000000000000000000000000000000000000000000000000600052601160045260246000fd5b6000610ce482610947565b91507fffffffffffffffffffffffffffffffffffffffffffffffffffffffffffffffff8203610d1657610d15610caa565b5b600182019050919050565b7f4e6f7420617574686f72697a6564000000000000000000000000000000000000600082015250565b6000610d57600e83610b58565b9150610d6282610d21565b602082019050919050565b60006020820190508181036000830152610d8681610d4a565b9050919050565b7f416c726561647920636f6d706c65746564000000000000000000000000000000600082015250565b6000610dc3601183610b58565b9150610dce82610d8d565b602082019050919050565b60006020820190508181036000830152610df281610db6565b9050919050565b6000604082019050610e0e60008301856109bd565b610e1b60208301846109cc565b9392505050565b6000604082019050610e3760008301856109cc565b610e4460208301846109bd565b939250505056fea2646970667358221220fd27f2438a207440f3322e1c3fa6c830386896ad5e065302fb27677027cd6ae964736f6c63430008140033",
  "linkReferences": {},
  "deployedLinkReferences": {}
}