{
  "_format": "hh-sol-artifact-1",
  "contractName": "DeliveryContract",
  "sourceName": "contracts/DeliveryContract.sol",
  "abi": [
    {
      "inputs": [
        {
          "internalType": "address",
          "name": "_stablecoin",
          "type": "address"
        }
      ],
      "stateMutability": "nonpayable",
      "type": "constructor"
    },
    {
      "anonymous": false,
      "inputs": [
        {
          "indexed": false,
          "internalType": "uint256",
          "name": "requestId",
          "type": "uint256"
        },
        {
          "indexed": false,
          "internalType": "address",
          "name": "driver",
          "type": "address"
        }
      ],
      "name": "RequestCompleted",
      "type": "event"
    },
    {
      "anonymous": false,
      "inputs": [
        {
          "indexed": false,
          "internalType": "uint256",
          "name": "requestId",
          "type": "uint256"
        },
        {
          "indexed": false,
          "internalType": "address",
          "name": "user",
          "type": "address"
        },
        {
          "indexed": false,
          "internalType": "address",
          "name": "driver",
          "type": "address"
        },
        {
          "indexed": false,
          "internalType": "uint256",
          "name": "amount",
          "type": "uint256"
        }
      ],
      "name": "RequestCreated",
      "type": "event"
    },
    {
      "inputs": [],
      "name": "admin",
      "outputs": [
        {
          "internalType": "address",
          "name": "",
          "type": "address"
        }
      ],
      "stateMutability": "view",
      "type": "function"
    },
    {
      "inputs": [
        {
          "internalType": "uint256",
          "name": "_requestId",
          "type": "uint256"
        }
      ],
      "name": "completeRequest",
      "outputs": [],
      "stateMutability": "nonpayable",
      "type": "function"
    },
    {
      "inputs": [
        {
          "internalType": "uint256",
          "name": "_amount",
          "type": "uint256"
        },
        {
          "internalType": "address",
          "name": "_driver",
          "type": "address"
        }
      ],
      "name": "createRequest",
      "outputs": [],
      "stateMutability": "nonpayable",
      "type": "function"
    },
    {
      "inputs": [],
      "name": "requestCounter",
      "outputs": [
        {
          "internalType": "uint256",
          "name": "",
          "type": "uint256"
        }
      ],
      "stateMutability": "view",
      "type": "function"
    },
    {
      "inputs": [
        {
          "internalType": "uint256",
          "name": "",
          "type": "uint256"
        }
      ],
      "name": "requests",
      "outputs": [
        {
          "internalType": "address",
          "name": "user",
          "type": "address"
        },
        {
          "internalType": "address",
          "name": "driver",
          "type": "address"
        },
        {
          "internalType": "uint256",
          "name": "amount",
          "type": "uint256"
        },
        {
          "internalType": "bool",
          "name": "isCompleted",
          "type": "bool"
        }
      ],
      "stateMutability": "view",
      "type": "function"
    },
    {
      "inputs": [],
      "name": "stablecoin",
      "outputs": [
        {
          "internalType": "contract IERC20",
          "name": "",
          "type": "address"
        }
      ],
      "stateMutability": "view",
      "type": "function"
    }
  ],
  "bytecode": "0x608060405234801561001057600080fd5b50604051610d2d380380610d2d8339818101604052810190610032919061011c565b336000806101000a81548173ffffffffffffffffffffffffffffffffffffffff021916908373ffffffffffffffffffffffffffffffffffffffff16021790555080600160006101000a81548173ffffffffffffffffffffffffffffffffffffffff021916908373ffffffffffffffffffffffffffffffffffffffff16021790555050610149565b600080fd5b600073ffffffffffffffffffffffffffffffffffffffff82169050919050565b60006100e9826100be565b9050919050565b6100f9816100de565b811461010457600080fd5b50565b600081519050610116816100f0565b92915050565b600060208284031215610132576101316100b9565b5b600061014084828501610107565b91505092915050565b610bd5806101586000396000f3fe608060405234801561001057600080fd5b50600436106100625760003560e01c80632f51e58c1461006757806381d12c5814610083578063973a814e146100b6578063cc1e0359146100d4578063e9cbd822146100f0578063f851a4401461010e575b600080fd5b610081600480360381019061007c9190610711565b61012c565b005b61009d60048036038101906100989190610751565b61038d565b6040516100ad94939291906107b7565b60405180910390f35b6100be61040a565b6040516100cb91906107fc565b60405180910390f35b6100ee60048036038101906100e99190610751565b610410565b005b6100f861062e565b6040516101059190610876565b60405180910390f35b610116610654565b6040516101239190610891565b60405180910390f35b6000821161016f576040517f08c379a000000000000000000000000000000000000000000000000000000000815260040161016690610909565b60405180910390fd5b600160009054906101000a900473ffffffffffffffffffffffffffffffffffffffff1673ffffffffffffffffffffffffffffffffffffffff166323b872dd3330856040518463ffffffff1660e01b81526004016101ce93929190610929565b6020604051808303816000875af11580156101ed573d6000803e3d6000fd5b505050506040513d601f19601f82011682018060405250810190610211919061098c565b5060405180608001604052803373ffffffffffffffffffffffffffffffffffffffff1681526020018273ffffffffffffffffffffffffffffffffffffffff1681526020018381526020016000151581525060036000600254815260200190815260200160002060008201518160000160006101000a81548173ffffffffffffffffffffffffffffffffffffffff021916908373ffffffffffffffffffffffffffffffffffffffff16021790555060208201518160010160006101000a81548173ffffffffffffffffffffffffffffffffffffffff021916908373ffffffffffffffffffffffffffffffffffffffff1602179055506040820151816002015560608201518160030160006101000a81548160ff0219169083151502179055509050507f0e7a8745f486625fa0fdb624c86193bdeab0bf9cdbf7b7225faf71fdcb60998f60025433838560405161036994939291906109b9565b60405180910390a16002600081548092919061038490610a2d565b91905055505050565b60036020528060005260406000206000915090508060000160009054906101000a900473ffffffffffffffffffffffffffffffffffffffff16908060010160009054906101000a900473ffffffffffffffffffffffffffffffffffffffff16908060020154908060030160009054906101000a900460ff16905084565b60025481565b60006003600083815260200190815260200160002090508060010160009054906101000a900473ffffffffffffffffffffffffffffffffffffffff1673ffffffffffffffffffffffffffffffffffffffff163373ffffffffffffffffffffffffffffffffffffffff16146104b9576040517f08c379a00000000000000000000000000000000000000000000000000000000081526004016104b090610ac1565b60405180910390fd5b8060030160009054906101000a900460ff161561050b576040517f08c379a000000000000000000000000000000000000000000000000000000000815260040161050290610b2d565b60405180910390fd5b60018160030160006101000a81548160ff021916908315150217905550600160009054906101000a900473ffffffffffffffffffffffffffffffffffffffff1673ffffffffffffffffffffffffffffffffffffffff1663a9059cbb8260010160009054906101000a900473ffffffffffffffffffffffffffffffffffffffff1683600201546040518363ffffffff1660e01b81526004016105ad929190610b4d565b6020604051808303816000875af11580156105cc573d6000803e3d6000fd5b505050506040513d601f19601f820116820180604052508101906105f0919061098c565b507f1d961eb7779cdf87f83b3c5ca1e5a7b0b7832f5fc1f9b813fea6787daf0e884c8233604051610622929190610b76565b60405180910390a15050565b600160009054906101000a900473ffffffffffffffffffffffffffffffffffffffff1681565b60008054906101000a900473ffffffffffffffffffffffffffffffffffffffff1681565b600080fd5b6000819050919050565b6106908161067d565b811461069b57600080fd5b50565b6000813590506106ad81610687565b92915050565b600073ffffffffffffffffffffffffffffffffffffffff82169050919050565b60006106de826106b3565b9050919050565b6106ee816106d3565b81146106f957600080fd5b50565b60008135905061070b816106e5565b92915050565b6000806040838503121561072857610727610678565b5b60006107368582860161069e565b9250506020610747858286016106fc565b9150509250929050565b60006020828403121561076757610766610678565b5b60006107758482850161069e565b91505092915050565b610787816106d3565b82525050565b6107968161067d565b82525050565b60008115159050919050565b6107b18161079c565b82525050565b60006080820190506107cc600083018761077e565b6107d9602083018661077e565b6107e6604083018561078d565b6107f360608301846107a8565b95945050505050565b6000602082019050610811600083018461078d565b92915050565b6000819050919050565b600061083c610837610832846106b3565b610817565b6106b3565b9050919050565b600061084e82610821565b9050919050565b600061086082610843565b9050919050565b61087081610855565b82525050565b600060208201905061088b6000830184610867565b92915050565b60006020820190506108a6600083018461077e565b92915050565b600082825260208201905092915050565b7f416d6f756e74206d757374206265203e20300000000000000000000000000000600082015250565b60006108f36012836108ac565b91506108fe826108bd565b602082019050919050565b60006020820190508181036000830152610922816108e6565b9050919050565b600060608201905061093e600083018661077e565b61094b602083018561077e565b610958604083018461078d565b949350505050565b6109698161079c565b811461097457600080fd5b50565b60008151905061098681610960565b92915050565b6000602082840312156109a2576109a1610678565b5b60006109b084828501610977565b91505092915050565b60006080820190506109ce600083018761078d565b6109db602083018661077e565b6109e8604083018561077e565b6109f5606083018461078d565b95945050505050565b7f4e487b7100000000000000000000000000000000000000000000000000000000600052601160045260246000fd5b6000610a388261067d565b91507fffffffffffffffffffffffffffffffffffffffffffffffffffffffffffffffff8203610a6a57610a696109fe565b5b600182019050919050565b7f4e6f7420617574686f72697a6564000000000000000000000000000000000000600082015250565b6000610aab600e836108ac565b9150610ab682610a75565b602082019050919050565b60006020820190508181036000830152610ada81610a9e565b9050919050565b7f416c726561647920636f6d706c65746564000000000000000000000000000000600082015250565b6000610b176011836108ac565b9150610b2282610ae1565b602082019050919050565b60006020820190508181036000830152610b4681610b0a565b9050919050565b6000604082019050610b62600083018561077e565b610b6f602083018461078d565b9392505050565b6000604082019050610b8b600083018561078d565b610b98602083018461077e565b939250505056fea26469706673582212205fac2332a3d5648dae647619e61e82dfa52d7d676f773d41c281c7bd196d802864736f6c63430008140033",
  "linkReferences": {},
  "deployedLinkReferences": {}
}