{
  "_format": "hh-sol-artifact-1",
  "contractName": "ReputationNFT",
  "sourceName": "contracts/ReputationNFT.sol",
  "abi": [
    {
      "inputs": [],
      "stateMutability": "nonpayable",
      "type": "constructor"
    },
    {
      "inputs": [
        {
          "internalType": "address",
          "name": "sender",
          "type": "address"
        },
        {
          "internalType": "uint256",
          "name": "tokenId",
          "type": "uint256"
        },
        {
          "internalType": "address",
          "name": "owner",
          "type": "address"
        }
      ],
      "name": "ERC721IncorrectOwner",
      "type": "error"
    },
    {
      "inputs": [
        {
          "internalType": "address",
          "name": "operator",
          "type": "address"
        },
        {
          "internalType": "uint256",
          "name": "tokenId",
          "type": "uint256"
        }
      ],
      "name": "ERC721InsufficientApproval",
      "type": "error"
    },
    {
      "inputs": [
        {
          "internalType": "address",
          "name": "approver",
          "type": "address"
        }
      ],
      "name": "ERC721InvalidApprover",
      "type": "error"
    },
    {
      "inputs": [
        {
          "internalType": "address",
          "name": "operator",
          "type": "address"
        }
      ],
      "name": "ERC721InvalidOperator",
      "type": "error"
    },
    {
      "inputs": [
        {
          "internalType": "address",
          "name": "owner",
          "type": "address"
        }
      ],
      "name": "ERC721InvalidOwner",
      "type": "error"
    },
    {
      "inputs": [
        {
          "internalType": "address",
          "name": "receiver",
          "type": "address"
        }
      ],
      "name": "ERC721InvalidReceiver",
      "type": "error"
    },
    {
      "inputs": [
        {
          "internalType": "address",
          "name": "sender",
          "type": "address"
        }
      ],
      "name": "ERC721InvalidSender",
      "type": "error"
    },
    {
      "inputs": [
        {
          "internalType": "uint256",
          "name": "tokenId",
          "type": "uint256"
        }
      ],
      "name": "ERC721NonexistentToken",
      "type": "error"
    },
    {
      "inputs": [
        {
          "internalType": "address",
          "name": "owner",
          "type": "address"
        }
      ],
      "name": "OwnableInvalidOwner",
      "type": "error"
    },
    {
      "inputs": [
        {
          "internalType": "address",
          "name": "account",
          "type": "address"
        }
      ],
      "name": "OwnableUnauthorizedAccount",
      "type": "error"
    },
    {
      "anonymous": false,
      "inputs": [
        {
          "indexed": true,
          "internalType": "address",
          "name": "owner",
          "type": "address"
        },
        {
          "indexed": true,
          "internalType": "address",
          "name": "approved",
          "type": "address"
        },
        {
          "indexed": true,
          "internalType": "uint256",
          "name": "tokenId",
          "type": "uint256"
        }
      ],
      "name": "Approval",
      "type": "event"
    },
    {
      "anonymous": false,
      "inputs": [
        {
          "indexed": true,
          "internalType": "address",
          "name": "owner",
          "type": "address"
        },
        {
          "indexed": true,
          "internalType": "address",
          "name": "operator",
          "type": "address"
        },
        {
          "indexed": false,
          "internalType": "bool",
          "name": "approved",
          "type": "bool"
        }
      ],
      "name": "ApprovalForAll",
      "type": "event"
    },
    {
      "anonymous": false,
      "inputs": [
        {
          "indexed": true,
          "internalType": "address",
          "name": "driver",
          "type": "address"
        },
        {
          "indexed": true,
          "internalType": "uint256",
          "name": "tokenId",
          "type": "uint256"
        }
      ],
      "name": "BadgeMinted",
      "type": "event"
    },
    {
      "anonymous": false,
      "inputs": [
        {
          "indexed": true,
          "internalType": "address",
          "name": "previousOwner",
          "type": "address"
        },
        {
          "indexed": true,
          "internalType": "address",
          "name": "newOwner",
          "type": "address"
        }
      ],
      "name": "OwnershipTransferred",
      "type": "event"
    },
    {
      "anonymous": false,
      "inputs": [
        {
          "indexed": true,
          "internalType": "address",
          "name": "from",
          "type": "address"
        },
        {
          "indexed": true,
          "internalType": "address",
          "name": "to",
          "type": "address"
        },
        {
          "indexed": true,
          "internalType": "uint256",
          "name": "tokenId",
          "type": "uint256"
        }
      ],
      "name": "Transfer",
      "type": "event"
    },
    {
      "inputs": [
        {
          "internalType": "address",
          "name": "to",
          "type": "address"
        },
        {
          "internalType": "uint256",
          "name": "tokenId",
          "type": "uint256"
        }
      ],
      "name": "approve",
      "outputs": [],
      "stateMutability": "nonpayable",
      "type": "function"
    },
    {
      "inputs": [
        {
          "internalType": "address",
          "name": "owner",
          "type": "address"
        }
      ],
      "name": "balanceOf",
      "outputs": [
        {
          "internalType": "uint256",
          "name": "",
          "type": "uint256"
        }
      ],
      "stateMutability": "view",
      "type": "function"
    },
    {
      "inputs": [
        {
          "internalType": "address",
          "name": "",
          "type": "address"
        }
      ],
      "name": "driverDeliveries",
      "outputs": [
        {
          "internalType": "uint256",
          "name": "",
          "type": "uint256"
        }
      ],
      "stateMutability": "view",
      "type": "function"
    },
    {
      "inputs": [
        {
          "internalType": "uint256",
          "name": "tokenId",
          "type": "uint256"
        }
      ],
      "name": "getApproved",
      "outputs": [
        {
          "internalType": "address",
          "name": "",
          "type": "address"
        }
      ],
      "stateMutability": "view",
      "type": "function"
    },
    {
      "inputs": [
        {
          "internalType": "address",
          "name": "owner",
          "type": "address"
        },
        {
          "internalType": "address",
          "name": "operator",
          "type": "address"
        }
      ],
      "name": "isApprovedForAll",
      "outputs": [
        {
          "internalType": "bool",
          "name": "",
          "type": "bool"
        }
      ],
      "stateMutability": "view",
      "type": "function"
    },
    {
      "inputs": [
        {
          "internalType": "address",
          "name": "driver",
          "type": "address"
        }
      ],
      "name": "mintBadge",
      "outputs": [],
      "stateMutability": "nonpayable",
      "type": "function"
    },
    {
      "inputs": [],
      "name": "name",
      "outputs": [
        {
          "internalType": "string",
          "name": "",
          "type": "string"
        }
      ],
      "stateMutability": "view",
      "type": "function"
    },
    {
      "inputs": [],
      "name": "owner",
      "outputs": [
        {
          "internalType": "address",
          "name": "",
          "type": "address"
        }
      ],
      "stateMutability": "view",
      "type": "function"
    },
    {
      "inputs": [
        {
          "internalType": "uint256",
          "name": "tokenId",
          "type": "uint256"
        }
      ],
      "name": "ownerOf",
      "outputs": [
        {
          "internalType": "address",
          "name": "",
          "type": "address"
        }
      ],
      "stateMutability": "view",
      "type": "function"
    },
    {
      "inputs": [
        {
          "internalType": "address",
          "name": "driver",
          "type": "address"
        }
      ],
      "name": "recordDeliveryAndMaybeMint",
      "outputs": [],
      "stateMutability": "nonpayable",
      "type": "function"
    },
    {
      "inputs": [],
      "name": "renounceOwnership",
      "outputs": [],
      "stateMutability": "nonpayable",
      "type": "function"
    },
    {
      "inputs": [
        {
          "internalType": "address",
          "name": "from",
          "type": "address"
        },
        {
          "internalType": "address",
          "name": "to",
          "type": "address"
        },
        {
          "internalType": "uint256",
          "name": "tokenId",
          "type": "uint256"
        }
      ],
      "name": "safeTransferFrom",
      "outputs": [],
      "stateMutability": "nonpayable",
      "type": "function"
    },
    {
      "inputs": [
        {
          "internalType": "address",
          "name": "from",
          "type": "address"
        },
        {
          "internalType": "address",
          "name": "to",
          "type": "address"
        },
        {
          "internalType": "uint256",
          "name": "tokenId",
          "type": "uint256"
        },
        {
          "internalType": "bytes",
          "name": "data",
          "type": "bytes"
        }
      ],
      "name": "safeTransferFrom",
      "outputs": [],
      "stateMutability": "nonpayable",
      "type": "function"
    },
    {
      "inputs": [
        {
          "internalType": "address",
          "name": "operator",
          "type": "address"
        },
        {
          "internalType": "bool",
          "name": "approved",
          "type": "bool"
        }
      ],
      "name": "setApprovalForAll",
      "outputs": [],
      "stateMutability": "nonpayable",
      "type": "function"
    },
    {
      "inputs": [
        {
          "internalType": "bytes4",
          "name": "interfaceId",
          "type": "bytes4"
        }
      ],
      "name": "supportsInterface",
      "outputs": [
        {
          "internalType": "bool",
          "name": "",
          "type": "bool"
        }
      ],
      "stateMutability": "view",
      "type": "function"
    },
    {
      "inputs": [],
      "name": "symbol",
      "outputs": [
        {
          "internalType": "string",
          "name": "",
          "type": "string"
        }
      ],
      "stateMutability": "view",
      "type": "function"
    },
    {
      "inputs": [],
      "name": "tokenIdCounter",
      "outputs": [
        {
          "internalType": "uint256",
          "name": "",
          "type": "uint256"
        }
      ],
      "stateMutability": "view",
      "type": "function"
    },
    {
      "inputs": [
        {
          "internalType": "uint256",
          "name": "tokenId",
          "type": "uint256"
        }
      ],
      "name": "tokenURI",
      "outputs": [
        {
          "internalType": "string",
          "name": "",
          "type": "string"
        }
      ],
      "stateMutability": "view",
      "type": "function"
    },
    {
      "inputs": [
        {
          "internalType": "address",
          "name": "from",
          "type": "address"
        },
        {
          "internalType": "address",
          "name": "to",
          "type": "address"
        },
        {
          "internalType": "uint256",
          "name": "tokenId",
          "type": "uint256"
        }
      ],
      "name": "transferFrom",
      "outputs": [],
      "stateMutability": "nonpayable",
      "type": "function"
    },
    {
      "inputs": [
        {
          "internalType": "address",
          "name": "newOwner",
          "type": "address"
        }
      ],
      "name": "transferOwnership",
      "outputs": [],
      "stateMutability": "nonpayable",
      "type": "function"
    }
  ],
  "bytecode": "0x60806040523480156200001157600080fd5b50336040518060400160405280601081526020017f44726976657252657075746174696f6e000000000000000000000000000000008152506040518060400160405280600581526020017f44524e4654000000000000000000000000000000000000000000000000000000815250816000908162000090919062000472565b508060019081620000a2919062000472565b505050600073ffffffffffffffffffffffffffffffffffffffff168173ffffffffffffffffffffffffffffffffffffffff16036200011a5760006040517f1e4fbdf70000000000000000000000000000000000000000000000000000000081526004016200011191906200059e565b60405180910390fd5b6200012b816200013260201b60201c565b50620005bb565b6000600660009054906101000a900473ffffffffffffffffffffffffffffffffffffffff16905081600660006101000a81548173ffffffffffffffffffffffffffffffffffffffff021916908373ffffffffffffffffffffffffffffffffffffffff1602179055508173ffffffffffffffffffffffffffffffffffffffff168173ffffffffffffffffffffffffffffffffffffffff167f8be0079c531659141344cd1fd0a4f28419497f9722a3daafe3b4186f6b6457e060405160405180910390a35050565b600081519050919050565b7f4e487b7100000000000000000000000000000000000000000000000000000000600052604160045260246000fd5b7f4e487b7100000000000000000000000000000000000000000000000000000000600052602260045260246000fd5b600060028204905060018216806200027a57607f821691505b60208210810362000290576200028f62000232565b5b50919050565b60008190508160005260206000209050919050565b60006020601f8301049050919050565b600082821b905092915050565b600060088302620002fa7fffffffffffffffffffffffffffffffffffffffffffffffffffffffffffffffff82620002bb565b620003068683620002bb565b95508019841693508086168417925050509392505050565b6000819050919050565b6000819050919050565b6000620003536200034d62000347846200031e565b62000328565b6200031e565b9050919050565b6000819050919050565b6200036f8362000332565b620003876200037e826200035a565b848454620002c8565b825550505050565b600090565b6200039e6200038f565b620003ab81848462000364565b505050565b5b81811015620003d357620003c760008262000394565b600181019050620003b1565b5050565b601f8211156200042257620003ec8162000296565b620003f784620002ab565b8101602085101562000407578190505b6200041f6200041685620002ab565b830182620003b0565b50505b505050565b600082821c905092915050565b6000620004476000198460080262000427565b1980831691505092915050565b600062000462838362000434565b9150826002028217905092915050565b6200047d82620001f8565b67ffffffffffffffff81111562000499576200049862000203565b5b620004a5825462000261565b620004b2828285620003d7565b600060209050601f831160018114620004ea5760008415620004d5578287015190505b620004e1858262000454565b86555062000551565b601f198416620004fa8662000296565b60005b828110156200052457848901518255600182019150602085019450602081019050620004fd565b8683101562000544578489015162000540601f89168262000434565b8355505b6001600288020188555050505b505050505050565b600073ffffffffffffffffffffffffffffffffffffffff82169050919050565b6000620005868262000559565b9050919050565b620005988162000579565b82525050565b6000602082019050620005b560008301846200058d565b92915050565b61243380620005cb6000396000f3fe608060405234801561001057600080fd5b506004361061012c5760003560e01c8063715018a6116100ad578063b88d4fde11610071578063b88d4fde1461031b578063c87b56dd14610337578063e985e9c514610367578063f2fde38b14610397578063fa2f8b7e146103b35761012c565b8063715018a61461029b5780638da5cb5b146102a557806395d89b41146102c357806398bdf6f5146102e1578063a22cb465146102ff5761012c565b806342842e0e116100f457806342842e0e146101e75780634a36f6e4146102035780636352211e1461021f578063647945201461024f57806370a082311461026b5761012c565b806301ffc9a71461013157806306fdde0314610161578063081812fc1461017f578063095ea7b3146101af57806323b872dd146101cb575b600080fd5b61014b60048036038101906101469190611b69565b6103e3565b6040516101589190611bb1565b60405180910390f35b6101696104c5565b6040516101769190611c5c565b60405180910390f35b61019960048036038101906101949190611cb4565b610557565b6040516101a69190611d22565b60405180910390f35b6101c960048036038101906101c49190611d69565b610573565b005b6101e560048036038101906101e09190611da9565b610589565b005b61020160048036038101906101fc9190611da9565b61068b565b005b61021d60048036038101906102189190611dfc565b6106ab565b005b61023960048036038101906102349190611cb4565b61078f565b6040516102469190611d22565b60405180910390f35b61026960048036038101906102649190611dfc565b6107a1565b005b61028560048036038101906102809190611dfc565b6108cd565b6040516102929190611e38565b60405180910390f35b6102a3610987565b005b6102ad61099b565b6040516102ba9190611d22565b60405180910390f35b6102cb6109c5565b6040516102d89190611c5c565b60405180910390f35b6102e9610a57565b6040516102f69190611e38565b60405180910390f35b61031960048036038101906103149190611e7f565b610a5d565b005b61033560048036038101906103309190611ff4565b610a73565b005b610351600480360381019061034c9190611cb4565b610a98565b60405161035e9190611c5c565b60405180910390f35b610381600480360381019061037c9190612077565b610b01565b60405161038e9190611bb1565b60405180910390f35b6103b160048036038101906103ac9190611dfc565b610b95565b005b6103cd60048036038101906103c89190611dfc565b610c1b565b6040516103da9190611e38565b60405180910390f35b60007f80ac58cd000000000000000000000000000000000000000000000000000000007bffffffffffffffffffffffffffffffffffffffffffffffffffffffff1916827bffffffffffffffffffffffffffffffffffffffffffffffffffffffff191614806104ae57507f5b5e139f000000000000000000000000000000000000000000000000000000007bffffffffffffffffffffffffffffffffffffffffffffffffffffffff1916827bffffffffffffffffffffffffffffffffffffffffffffffffffffffff1916145b806104be57506104bd82610c33565b5b9050919050565b6060600080546104d4906120e6565b80601f0160208091040260200160405190810160405280929190818152602001828054610500906120e6565b801561054d5780601f106105225761010080835404028352916020019161054d565b820191906000526020600020905b81548152906001019060200180831161053057829003601f168201915b5050505050905090565b600061056282610c9d565b5061056c82610d25565b9050919050565b6105858282610580610d62565b610d6a565b5050565b600073ffffffffffffffffffffffffffffffffffffffff168273ffffffffffffffffffffffffffffffffffffffff16036105fb5760006040517f64a0ae920000000000000000000000000000000000000000000000000000000081526004016105f29190611d22565b60405180910390fd5b600061060f838361060a610d62565b610d7c565b90508373ffffffffffffffffffffffffffffffffffffffff168173ffffffffffffffffffffffffffffffffffffffff1614610685578382826040517f64283d7b00000000000000000000000000000000000000000000000000000000815260040161067c93929190612117565b60405180910390fd5b50505050565b6106a683838360405180602001604052806000815250610a73565b505050565b6106b3610f96565b600073ffffffffffffffffffffffffffffffffffffffff168173ffffffffffffffffffffffffffffffffffffffff1603610722576040517f08c379a00000000000000000000000000000000000000000000000000000000081526004016107199061219a565b60405180910390fd5b600060076000815480929190610737906121e9565b919050559050610747828261101d565b808273ffffffffffffffffffffffffffffffffffffffff167fc5e5b314108c1f776c2302351b8278910ddb812b122b2717b1bc973146145e9a60405160405180910390a35050565b600061079a82610c9d565b9050919050565b6107a9610f96565b600073ffffffffffffffffffffffffffffffffffffffff168173ffffffffffffffffffffffffffffffffffffffff1603610818576040517f08c379a000000000000000000000000000000000000000000000000000000000815260040161080f9061219a565b60405180910390fd5b600860008273ffffffffffffffffffffffffffffffffffffffff1673ffffffffffffffffffffffffffffffffffffffff1681526020019081526020016000206000815480929190610868906121e9565b919050555060006005600860008473ffffffffffffffffffffffffffffffffffffffff1673ffffffffffffffffffffffffffffffffffffffff168152602001908152602001600020546108bb9190612260565b036108ca576108c9816106ab565b5b50565b60008073ffffffffffffffffffffffffffffffffffffffff168273ffffffffffffffffffffffffffffffffffffffff16036109405760006040517f89c62b640000000000000000000000000000000000000000000000000000000081526004016109379190611d22565b60405180910390fd5b600360008373ffffffffffffffffffffffffffffffffffffffff1673ffffffffffffffffffffffffffffffffffffffff168152602001908152602001600020549050919050565b61098f610f96565b610999600061103b565b565b6000600660009054906101000a900473ffffffffffffffffffffffffffffffffffffffff16905090565b6060600180546109d4906120e6565b80601f0160208091040260200160405190810160405280929190818152602001828054610a00906120e6565b8015610a4d5780601f10610a2257610100808354040283529160200191610a4d565b820191906000526020600020905b815481529060010190602001808311610a3057829003601f168201915b5050505050905090565b60075481565b610a6f610a68610d62565b8383611101565b5050565b610a7e848484610589565b610a92610a89610d62565b85858585611270565b50505050565b6060610aa382610c9d565b506000610aae611421565b90506000815111610ace5760405180602001604052806000815250610af9565b80610ad884611438565b604051602001610ae99291906122cd565b6040516020818303038152906040525b915050919050565b6000600560008473ffffffffffffffffffffffffffffffffffffffff1673ffffffffffffffffffffffffffffffffffffffff16815260200190815260200160002060008373ffffffffffffffffffffffffffffffffffffffff1673ffffffffffffffffffffffffffffffffffffffff16815260200190815260200160002060009054906101000a900460ff16905092915050565b610b9d610f96565b600073ffffffffffffffffffffffffffffffffffffffff168173ffffffffffffffffffffffffffffffffffffffff1603610c0f5760006040517f1e4fbdf7000000000000000000000000000000000000000000000000000000008152600401610c069190611d22565b60405180910390fd5b610c188161103b565b50565b60086020528060005260406000206000915090505481565b60007f01ffc9a7000000000000000000000000000000000000000000000000000000007bffffffffffffffffffffffffffffffffffffffffffffffffffffffff1916827bffffffffffffffffffffffffffffffffffffffffffffffffffffffff1916149050919050565b600080610ca983611506565b9050600073ffffffffffffffffffffffffffffffffffffffff168173ffffffffffffffffffffffffffffffffffffffff1603610d1c57826040517f7e273289000000000000000000000000000000000000000000000000000000008152600401610d139190611e38565b60405180910390fd5b80915050919050565b60006004600083815260200190815260200160002060009054906101000a900473ffffffffffffffffffffffffffffffffffffffff169050919050565b600033905090565b610d778383836001611543565b505050565b600080610d8884611506565b9050600073ffffffffffffffffffffffffffffffffffffffff168373ffffffffffffffffffffffffffffffffffffffff1614610dca57610dc9818486611708565b5b600073ffffffffffffffffffffffffffffffffffffffff168173ffffffffffffffffffffffffffffffffffffffff1614610e5b57610e0c600085600080611543565b6001600360008373ffffffffffffffffffffffffffffffffffffffff1673ffffffffffffffffffffffffffffffffffffffff168152602001908152602001600020600082825403925050819055505b600073ffffffffffffffffffffffffffffffffffffffff168573ffffffffffffffffffffffffffffffffffffffff1614610ede576001600360008773ffffffffffffffffffffffffffffffffffffffff1673ffffffffffffffffffffffffffffffffffffffff168152602001908152602001600020600082825401925050819055505b846002600086815260200190815260200160002060006101000a81548173ffffffffffffffffffffffffffffffffffffffff021916908373ffffffffffffffffffffffffffffffffffffffff160217905550838573ffffffffffffffffffffffffffffffffffffffff168273ffffffffffffffffffffffffffffffffffffffff167fddf252ad1be2c89b69c2b068fc378daa952ba7f163c4a11628f55a4df523b3ef60405160405180910390a4809150509392505050565b610f9e610d62565b73ffffffffffffffffffffffffffffffffffffffff16610fbc61099b565b73ffffffffffffffffffffffffffffffffffffffff161461101b57610fdf610d62565b6040517f118cdaa70000000000000000000000000000000000000000000000000000000081526004016110129190611d22565b60405180910390fd5b565b6110378282604051806020016040528060008152506117cc565b5050565b6000600660009054906101000a900473ffffffffffffffffffffffffffffffffffffffff16905081600660006101000a81548173ffffffffffffffffffffffffffffffffffffffff021916908373ffffffffffffffffffffffffffffffffffffffff1602179055508173ffffffffffffffffffffffffffffffffffffffff168173ffffffffffffffffffffffffffffffffffffffff167f8be0079c531659141344cd1fd0a4f28419497f9722a3daafe3b4186f6b6457e060405160405180910390a35050565b600073ffffffffffffffffffffffffffffffffffffffff168273ffffffffffffffffffffffffffffffffffffffff160361117257816040517f5b08ba180000000000000000000000000000000000000000000000000000000081526004016111699190611d22565b60405180910390fd5b80600560008573ffffffffffffffffffffffffffffffffffffffff1673ffffffffffffffffffffffffffffffffffffffff16815260200190815260200160002060008473ffffffffffffffffffffffffffffffffffffffff1673ffffffffffffffffffffffffffffffffffffffff16815260200190815260200160002060006101000a81548160ff0219169083151502179055508173ffffffffffffffffffffffffffffffffffffffff168373ffffffffffffffffffffffffffffffffffffffff167f17307eab39ab6107e8899845ad3d59bd9653f200f220920489ca2b5937696c31836040516112639190611bb1565b60405180910390a3505050565b60008373ffffffffffffffffffffffffffffffffffffffff163b111561141a578273ffffffffffffffffffffffffffffffffffffffff1663150b7a02868685856040518563ffffffff1660e01b81526004016112cf9493929190612346565b6020604051808303816000875af192505050801561130b57506040513d601f19601f8201168201806040525081019061130891906123a7565b60015b61138f573d806000811461133b576040519150601f19603f3d011682016040523d82523d6000602084013e611340565b606091505b50600081510361138757836040517f64a0ae9200000000000000000000000000000000000000000000000000000000815260040161137e9190611d22565b60405180910390fd5b805160208201fd5b63150b7a0260e01b7bffffffffffffffffffffffffffffffffffffffffffffffffffffffff1916817bffffffffffffffffffffffffffffffffffffffffffffffffffffffff19161461141857836040517f64a0ae9200000000000000000000000000000000000000000000000000000000815260040161140f9190611d22565b60405180910390fd5b505b5050505050565b606060405180602001604052806000815250905090565b606060006001611447846117f0565b01905060008167ffffffffffffffff81111561146657611465611ec9565b5b6040519080825280601f01601f1916602001820160405280156114985781602001600182028036833780820191505090505b509050600082602083010190505b6001156114fb578080600190039150507f3031323334353637383961626364656600000000000000000000000000000000600a86061a8153600a85816114ef576114ee612231565b5b049450600085036114a6575b819350505050919050565b60006002600083815260200190815260200160002060009054906101000a900473ffffffffffffffffffffffffffffffffffffffff169050919050565b808061157c5750600073ffffffffffffffffffffffffffffffffffffffff168273ffffffffffffffffffffffffffffffffffffffff1614155b156116b057600061158c84610c9d565b9050600073ffffffffffffffffffffffffffffffffffffffff168373ffffffffffffffffffffffffffffffffffffffff16141580156115f757508273ffffffffffffffffffffffffffffffffffffffff168173ffffffffffffffffffffffffffffffffffffffff1614155b801561160a57506116088184610b01565b155b1561164c57826040517fa9fbf51f0000000000000000000000000000000000000000000000000000000081526004016116439190611d22565b60405180910390fd5b81156116ae57838573ffffffffffffffffffffffffffffffffffffffff168273ffffffffffffffffffffffffffffffffffffffff167f8c5be1e5ebec7d5bd14f71427d1e84f3dd0314c0f7b2291e5b200ac8c7c3b92560405160405180910390a45b505b836004600085815260200190815260200160002060006101000a81548173ffffffffffffffffffffffffffffffffffffffff021916908373ffffffffffffffffffffffffffffffffffffffff16021790555050505050565b611713838383611943565b6117c757600073ffffffffffffffffffffffffffffffffffffffff168373ffffffffffffffffffffffffffffffffffffffff160361178857806040517f7e27328900000000000000000000000000000000000000000000000000000000815260040161177f9190611e38565b60405180910390fd5b81816040517f177e802f0000000000000000000000000000000000000000000000000000000081526004016117be9291906123d4565b60405180910390fd5b505050565b6117d68383611a04565b6117eb6117e1610d62565b6000858585611270565b505050565b600080600090507a184f03e93ff9f4daa797ed6e38ed64bf6a1f010000000000000000831061184e577a184f03e93ff9f4daa797ed6e38ed64bf6a1f010000000000000000838161184457611843612231565b5b0492506040810190505b6d04ee2d6d415b85acef8100000000831061188b576d04ee2d6d415b85acef8100000000838161188157611880612231565b5b0492506020810190505b662386f26fc1000083106118ba57662386f26fc1000083816118b0576118af612231565b5b0492506010810190505b6305f5e10083106118e3576305f5e10083816118d9576118d8612231565b5b0492506008810190505b61271083106119085761271083816118fe576118fd612231565b5b0492506004810190505b6064831061192b576064838161192157611920612231565b5b0492506002810190505b600a831061193a576001810190505b80915050919050565b60008073ffffffffffffffffffffffffffffffffffffffff168373ffffffffffffffffffffffffffffffffffffffff16141580156119fb57508273ffffffffffffffffffffffffffffffffffffffff168473ffffffffffffffffffffffffffffffffffffffff1614806119bc57506119bb8484610b01565b5b806119fa57508273ffffffffffffffffffffffffffffffffffffffff166119e283610d25565b73ffffffffffffffffffffffffffffffffffffffff16145b5b90509392505050565b600073ffffffffffffffffffffffffffffffffffffffff168273ffffffffffffffffffffffffffffffffffffffff1603611a765760006040517f64a0ae92000000000000000000000000000000000000000000000000000000008152600401611a6d9190611d22565b60405180910390fd5b6000611a8483836000610d7c565b9050600073ffffffffffffffffffffffffffffffffffffffff168173ffffffffffffffffffffffffffffffffffffffff1614611af85760006040517f73c6ac6e000000000000000000000000000000000000000000000000000000008152600401611aef9190611d22565b60405180910390fd5b505050565b6000604051905090565b600080fd5b600080fd5b60007fffffffff0000000000000000000000000000000000000000000000000000000082169050919050565b611b4681611b11565b8114611b5157600080fd5b50565b600081359050611b6381611b3d565b92915050565b600060208284031215611b7f57611b7e611b07565b5b6000611b8d84828501611b54565b91505092915050565b60008115159050919050565b611bab81611b96565b82525050565b6000602082019050611bc66000830184611ba2565b92915050565b600081519050919050565b600082825260208201905092915050565b60005b83811015611c06578082015181840152602081019050611beb565b60008484015250505050565b6000601f19601f8301169050919050565b6000611c2e82611bcc565b611c388185611bd7565b9350611c48818560208601611be8565b611c5181611c12565b840191505092915050565b60006020820190508181036000830152611c768184611c23565b905092915050565b6000819050919050565b611c9181611c7e565b8114611c9c57600080fd5b50565b600081359050611cae81611c88565b92915050565b600060208284031215611cca57611cc9611b07565b5b6000611cd884828501611c9f565b91505092915050565b600073ffffffffffffffffffffffffffffffffffffffff82169050919050565b6000611d0c82611ce1565b9050919050565b611d1c81611d01565b82525050565b6000602082019050611d376000830184611d13565b92915050565b611d4681611d01565b8114611d5157600080fd5b50565b600081359050611d6381611d3d565b92915050565b60008060408385031215611d8057611d7f611b07565b5b6000611d8e85828601611d54565b9250506020611d9f85828601611c9f565b9150509250929050565b600080600060608486031215611dc257611dc1611b07565b5b6000611dd086828701611d54565b9350506020611de186828701611d54565b9250506040611df286828701611c9f565b9150509250925092565b600060208284031215611e1257611e11611b07565b5b6000611e2084828501611d54565b91505092915050565b611e3281611c7e565b82525050565b6000602082019050611e4d6000830184611e29565b92915050565b611e5c81611b96565b8114611e6757600080fd5b50565b600081359050611e7981611e53565b92915050565b60008060408385031215611e9657611e95611b07565b5b6000611ea485828601611d54565b9250506020611eb585828601611e6a565b9150509250929050565b600080fd5b600080fd5b7f4e487b7100000000000000000000000000000000000000000000000000000000600052604160045260246000fd5b611f0182611c12565b810181811067ffffffffffffffff82111715611f2057611f1f611ec9565b5b80604052505050565b6000611f33611afd565b9050611f3f8282611ef8565b919050565b600067ffffffffffffffff821115611f5f57611f5e611ec9565b5b611f6882611c12565b9050602081019050919050565b82818337600083830152505050565b6000611f97611f9284611f44565b611f29565b905082815260208101848484011115611fb357611fb2611ec4565b5b611fbe848285611f75565b509392505050565b600082601f830112611fdb57611fda611ebf565b5b8135611feb848260208601611f84565b91505092915050565b6000806000806080858703121561200e5761200d611b07565b5b600061201c87828801611d54565b945050602061202d87828801611d54565b935050604061203e87828801611c9f565b925050606085013567ffffffffffffffff81111561205f5761205e611b0c565b5b61206b87828801611fc6565b91505092959194509250565b6000806040838503121561208e5761208d611b07565b5b600061209c85828601611d54565b92505060206120ad85828601611d54565b9150509250929050565b7f4e487b7100000000000000000000000000000000000000000000000000000000600052602260045260246000fd5b600060028204905060018216806120fe57607f821691505b602082108103612111576121106120b7565b5b50919050565b600060608201905061212c6000830186611d13565b6121396020830185611e29565b6121466040830184611d13565b949350505050565b7f496e76616c696420647269766572206164647265737300000000000000000000600082015250565b6000612184601683611bd7565b915061218f8261214e565b602082019050919050565b600060208201905081810360008301526121b381612177565b9050919050565b7f4e487b7100000000000000000000000000000000000000000000000000000000600052601160045260246000fd5b60006121f482611c7e565b91507fffffffffffffffffffffffffffffffffffffffffffffffffffffffffffffffff8203612226576122256121ba565b5b600182019050919050565b7f4e487b7100000000000000000000000000000000000000000000000000000000600052601260045260246000fd5b600061226b82611c7e565b915061227683611c7e565b92508261228657612285612231565b5b828206905092915050565b600081905092915050565b60006122a782611bcc565b6122b18185612291565b93506122c1818560208601611be8565b80840191505092915050565b60006122d9828561229c565b91506122e5828461229c565b91508190509392505050565b600081519050919050565b600082825260208201905092915050565b6000612318826122f1565b61232281856122fc565b9350612332818560208601611be8565b61233b81611c12565b840191505092915050565b600060808201905061235b6000830187611d13565b6123686020830186611d13565b6123756040830185611e29565b8181036060830152612387818461230d565b905095945050505050565b6000815190506123a181611b3d565b92915050565b6000602082840312156123bd576123bc611b07565b5b60006123cb84828501612392565b91505092915050565b60006040820190506123e96000830185611d13565b6123f66020830184611e29565b939250505056fea2646970667358221220afd23103103d0373bedb905e98c1c5055f5974e64d6d8109ef2b7d8eb10d6f8a64736f6c63430008140033",
  "linkReferences": {},
  "deployedLinkReferences": {}
}